{
	"contracts/ExampleMappingStruct.sol": {
		"MappginStructExample": {
			"abi": [
				{
					"inputs": [
						{
							"internalType": "address",
							"name": "",
							"type": "address"
						}
					],
					"name": "balances",
					"outputs": [
						{
							"internalType": "uint256",
							"name": "totalBalance",
							"type": "uint256"
						},
						{
							"internalType": "uint256",
							"name": "numberDeposits",
							"type": "uint256"
						},
						{
							"internalType": "uint256",
							"name": "numWithdrawals",
							"type": "uint256"
						}
					],
					"stateMutability": "view",
					"type": "function"
				},
				{
					"inputs": [],
					"name": "depositMoney",
					"outputs": [],
					"stateMutability": "payable",
					"type": "function"
				},
				{
					"inputs": [
						{
							"internalType": "address payable",
							"name": "_to",
							"type": "address"
						},
						{
							"internalType": "uint256",
							"name": "_amount",
							"type": "uint256"
						}
					],
					"name": "withdrawMoney",
					"outputs": [],
					"stateMutability": "nonpayable",
					"type": "function"
				}
			],
			"devdoc": {
				"kind": "dev",
				"methods": {},
				"version": 1
			},
			"evm": {
				"assembly": "    /* \"contracts/ExampleMappingStruct.sol\":62:1173  contract MappginStructExample {... */\n  mstore(0x40, 0x80)\n  callvalue\n  dup1\n  iszero\n  tag_1\n  jumpi\n  revert(0x00, 0x00)\ntag_1:\n  pop\n  dataSize(sub_0)\n  dup1\n  dataOffset(sub_0)\n  0x00\n  codecopy\n  0x00\n  return\nstop\n\nsub_0: assembly {\n        /* \"contracts/ExampleMappingStruct.sol\":62:1173  contract MappginStructExample {... */\n      mstore(0x40, 0x80)\n      jumpi(tag_1, lt(calldatasize, 0x04))\n      shr(0xe0, calldataload(0x00))\n      dup1\n      0x16c05aa2\n      eq\n      tag_2\n      jumpi\n      dup1\n      0x27e235e3\n      eq\n      tag_3\n      jumpi\n      dup1\n      0xf274c897\n      eq\n      tag_4\n      jumpi\n    tag_1:\n      revert(0x00, 0x00)\n        /* \"contracts/ExampleMappingStruct.sol\":436:749  function depositMoney() public payable {... */\n    tag_2:\n      tag_5\n      tag_6\n      jump\t// in\n    tag_5:\n      stop\n        /* \"contracts/ExampleMappingStruct.sol\":381:425  mapping (address => Balance) public balances */\n    tag_3:\n      callvalue\n      dup1\n      iszero\n      tag_7\n      jumpi\n      revert(0x00, 0x00)\n    tag_7:\n      pop\n      tag_8\n      0x04\n      dup1\n      calldatasize\n      sub\n      dup2\n      add\n      swap1\n      tag_9\n      swap2\n      swap1\n      tag_10\n      jump\t// in\n    tag_9:\n      tag_11\n      jump\t// in\n    tag_8:\n      mload(0x40)\n      tag_12\n      swap4\n      swap3\n      swap2\n      swap1\n      tag_13\n      jump\t// in\n    tag_12:\n      mload(0x40)\n      dup1\n      swap2\n      sub\n      swap1\n      return\n        /* \"contracts/ExampleMappingStruct.sol\":757:1162  function withdrawMoney(address payable _to, uint _amount) public {... */\n    tag_4:\n      callvalue\n      dup1\n      iszero\n      tag_14\n      jumpi\n      revert(0x00, 0x00)\n    tag_14:\n      pop\n      tag_15\n      0x04\n      dup1\n      calldatasize\n      sub\n      dup2\n      add\n      swap1\n      tag_16\n      swap2\n      swap1\n      tag_17\n      jump\t// in\n    tag_16:\n      tag_18\n      jump\t// in\n    tag_15:\n      stop\n        /* \"contracts/ExampleMappingStruct.sol\":436:749  function depositMoney() public payable {... */\n    tag_6:\n        /* \"contracts/ExampleMappingStruct.sol\":521:530  msg.value */\n      callvalue\n        /* \"contracts/ExampleMappingStruct.sol\":484:492  balances */\n      0x00\n        /* \"contracts/ExampleMappingStruct.sol\":484:504  balances[msg.sender] */\n      0x00\n        /* \"contracts/ExampleMappingStruct.sol\":493:503  msg.sender */\n      caller\n        /* \"contracts/ExampleMappingStruct.sol\":484:504  balances[msg.sender] */\n      0xffffffffffffffffffffffffffffffffffffffff\n      and\n      0xffffffffffffffffffffffffffffffffffffffff\n      and\n      dup2\n      mstore\n      0x20\n      add\n      swap1\n      dup2\n      mstore\n      0x20\n      add\n      0x00\n      keccak256\n        /* \"contracts/ExampleMappingStruct.sol\":484:517  balances[msg.sender].totalBalance */\n      0x00\n      add\n      0x00\n        /* \"contracts/ExampleMappingStruct.sol\":484:530  balances[msg.sender].totalBalance += msg.value */\n      dup3\n      dup3\n      sload\n      tag_20\n      swap2\n      swap1\n      tag_21\n      jump\t// in\n    tag_20:\n      swap3\n      pop\n      pop\n      dup2\n      swap1\n      sstore\n      pop\n        /* \"contracts/ExampleMappingStruct.sol\":539:565  Transaction memory deposit */\n      0x00\n        /* \"contracts/ExampleMappingStruct.sol\":568:607  Transaction(msg.value, block.timestamp) */\n      mload(0x40)\n      dup1\n      0x40\n      add\n      0x40\n      mstore\n      dup1\n        /* \"contracts/ExampleMappingStruct.sol\":580:589  msg.value */\n      callvalue\n        /* \"contracts/ExampleMappingStruct.sol\":568:607  Transaction(msg.value, block.timestamp) */\n      dup2\n      mstore\n      0x20\n      add\n        /* \"contracts/ExampleMappingStruct.sol\":591:606  block.timestamp */\n      timestamp\n        /* \"contracts/ExampleMappingStruct.sol\":568:607  Transaction(msg.value, block.timestamp) */\n      dup2\n      mstore\n      pop\n        /* \"contracts/ExampleMappingStruct.sol\":539:607  Transaction memory deposit = Transaction(msg.value, block.timestamp) */\n      swap1\n      pop\n        /* \"contracts/ExampleMappingStruct.sol\":685:692  deposit */\n      dup1\n        /* \"contracts/ExampleMappingStruct.sol\":616:624  balances */\n      0x00\n        /* \"contracts/ExampleMappingStruct.sol\":616:636  balances[msg.sender] */\n      0x00\n        /* \"contracts/ExampleMappingStruct.sol\":625:635  msg.sender */\n      caller\n        /* \"contracts/ExampleMappingStruct.sol\":616:636  balances[msg.sender] */\n      0xffffffffffffffffffffffffffffffffffffffff\n      and\n      0xffffffffffffffffffffffffffffffffffffffff\n      and\n      dup2\n      mstore\n      0x20\n      add\n      swap1\n      dup2\n      mstore\n      0x20\n      add\n      0x00\n      keccak256\n        /* \"contracts/ExampleMappingStruct.sol\":616:645  balances[msg.sender].deposits */\n      0x02\n      add\n        /* \"contracts/ExampleMappingStruct.sol\":616:682  balances[msg.sender].deposits[balances[msg.sender].numberDeposits] */\n      0x00\n        /* \"contracts/ExampleMappingStruct.sol\":646:654  balances */\n      0x00\n        /* \"contracts/ExampleMappingStruct.sol\":646:666  balances[msg.sender] */\n      0x00\n        /* \"contracts/ExampleMappingStruct.sol\":655:665  msg.sender */\n      caller\n        /* \"contracts/ExampleMappingStruct.sol\":646:666  balances[msg.sender] */\n      0xffffffffffffffffffffffffffffffffffffffff\n      and\n      0xffffffffffffffffffffffffffffffffffffffff\n      and\n      dup2\n      mstore\n      0x20\n      add\n      swap1\n      dup2\n      mstore\n      0x20\n      add\n      0x00\n      keccak256\n        /* \"contracts/ExampleMappingStruct.sol\":646:681  balances[msg.sender].numberDeposits */\n      0x01\n      add\n      sload\n        /* \"contracts/ExampleMappingStruct.sol\":616:682  balances[msg.sender].deposits[balances[msg.sender].numberDeposits] */\n      dup2\n      mstore\n      0x20\n      add\n      swap1\n      dup2\n      mstore\n      0x20\n      add\n      0x00\n      keccak256\n        /* \"contracts/ExampleMappingStruct.sol\":616:692  balances[msg.sender].deposits[balances[msg.sender].numberDeposits] = deposit */\n      0x00\n      dup3\n      add\n      mload\n      dup2\n      0x00\n      add\n      sstore\n      0x20\n      dup3\n      add\n      mload\n      dup2\n      0x01\n      add\n      sstore\n      swap1\n      pop\n      pop\n        /* \"contracts/ExampleMappingStruct.sol\":702:710  balances */\n      0x00\n        /* \"contracts/ExampleMappingStruct.sol\":702:722  balances[msg.sender] */\n      0x00\n        /* \"contracts/ExampleMappingStruct.sol\":711:721  msg.sender */\n      caller\n        /* \"contracts/ExampleMappingStruct.sol\":702:722  balances[msg.sender] */\n      0xffffffffffffffffffffffffffffffffffffffff\n      and\n      0xffffffffffffffffffffffffffffffffffffffff\n      and\n      dup2\n      mstore\n      0x20\n      add\n      swap1\n      dup2\n      mstore\n      0x20\n      add\n      0x00\n      keccak256\n        /* \"contracts/ExampleMappingStruct.sol\":702:737  balances[msg.sender].numberDeposits */\n      0x01\n      add\n      0x00\n        /* \"contracts/ExampleMappingStruct.sol\":702:739  balances[msg.sender].numberDeposits++ */\n      dup2\n      sload\n      dup1\n      swap3\n      swap2\n      swap1\n      tag_22\n      swap1\n      tag_23\n      jump\t// in\n    tag_22:\n      swap2\n      swap1\n      pop\n      sstore\n      pop\n        /* \"contracts/ExampleMappingStruct.sol\":475:749  {... */\n      pop\n        /* \"contracts/ExampleMappingStruct.sol\":436:749  function depositMoney() public payable {... */\n      jump\t// out\n        /* \"contracts/ExampleMappingStruct.sol\":381:425  mapping (address => Balance) public balances */\n    tag_11:\n      mstore(0x20, 0x00)\n      dup1\n      0x00\n      mstore\n      keccak256(0x00, 0x40)\n      0x00\n      swap2\n      pop\n      swap1\n      pop\n      dup1\n      0x00\n      add\n      sload\n      swap1\n      dup1\n      0x01\n      add\n      sload\n      swap1\n      dup1\n      0x03\n      add\n      sload\n      swap1\n      pop\n      dup4\n      jump\t// out\n        /* \"contracts/ExampleMappingStruct.sol\":757:1162  function withdrawMoney(address payable _to, uint _amount) public {... */\n    tag_18:\n        /* \"contracts/ExampleMappingStruct.sol\":880:887  _amount */\n      dup1\n        /* \"contracts/ExampleMappingStruct.sol\":843:851  balances */\n      0x00\n        /* \"contracts/ExampleMappingStruct.sol\":843:863  balances[msg.sender] */\n      0x00\n        /* \"contracts/ExampleMappingStruct.sol\":852:862  msg.sender */\n      caller\n        /* \"contracts/ExampleMappingStruct.sol\":843:863  balances[msg.sender] */\n      0xffffffffffffffffffffffffffffffffffffffff\n      and\n      0xffffffffffffffffffffffffffffffffffffffff\n      and\n      dup2\n      mstore\n      0x20\n      add\n      swap1\n      dup2\n      mstore\n      0x20\n      add\n      0x00\n      keccak256\n        /* \"contracts/ExampleMappingStruct.sol\":843:876  balances[msg.sender].totalBalance */\n      0x00\n      add\n      0x00\n        /* \"contracts/ExampleMappingStruct.sol\":843:887  balances[msg.sender].totalBalance -= _amount */\n      dup3\n      dup3\n      sload\n      tag_25\n      swap2\n      swap1\n      tag_26\n      jump\t// in\n    tag_25:\n      swap3\n      pop\n      pop\n      dup2\n      swap1\n      sstore\n      pop\n        /* \"contracts/ExampleMappingStruct.sol\":900:927  Transaction memory withdral */\n      0x00\n        /* \"contracts/ExampleMappingStruct.sol\":930:967  Transaction(_amount, block.timestamp) */\n      mload(0x40)\n      dup1\n      0x40\n      add\n      0x40\n      mstore\n      dup1\n        /* \"contracts/ExampleMappingStruct.sol\":942:949  _amount */\n      dup4\n        /* \"contracts/ExampleMappingStruct.sol\":930:967  Transaction(_amount, block.timestamp) */\n      dup2\n      mstore\n      0x20\n      add\n        /* \"contracts/ExampleMappingStruct.sol\":951:966  block.timestamp */\n      timestamp\n        /* \"contracts/ExampleMappingStruct.sol\":930:967  Transaction(_amount, block.timestamp) */\n      dup2\n      mstore\n      pop\n        /* \"contracts/ExampleMappingStruct.sol\":900:967  Transaction memory withdral = Transaction(_amount, block.timestamp) */\n      swap1\n      pop\n        /* \"contracts/ExampleMappingStruct.sol\":1052:1060  withdral */\n      dup1\n        /* \"contracts/ExampleMappingStruct.sol\":980:988  balances */\n      0x00\n        /* \"contracts/ExampleMappingStruct.sol\":980:1000  balances[msg.sender] */\n      0x00\n        /* \"contracts/ExampleMappingStruct.sol\":989:999  msg.sender */\n      caller\n        /* \"contracts/ExampleMappingStruct.sol\":980:1000  balances[msg.sender] */\n      0xffffffffffffffffffffffffffffffffffffffff\n      and\n      0xffffffffffffffffffffffffffffffffffffffff\n      and\n      dup2\n      mstore\n      0x20\n      add\n      swap1\n      dup2\n      mstore\n      0x20\n      add\n      0x00\n      keccak256\n        /* \"contracts/ExampleMappingStruct.sol\":980:1012  balances[msg.sender].withdrawals */\n      0x04\n      add\n        /* \"contracts/ExampleMappingStruct.sol\":980:1049  balances[msg.sender].withdrawals[balances[msg.sender].numWithdrawals] */\n      0x00\n        /* \"contracts/ExampleMappingStruct.sol\":1013:1021  balances */\n      0x00\n        /* \"contracts/ExampleMappingStruct.sol\":1013:1033  balances[msg.sender] */\n      0x00\n        /* \"contracts/ExampleMappingStruct.sol\":1022:1032  msg.sender */\n      caller\n        /* \"contracts/ExampleMappingStruct.sol\":1013:1033  balances[msg.sender] */\n      0xffffffffffffffffffffffffffffffffffffffff\n      and\n      0xffffffffffffffffffffffffffffffffffffffff\n      and\n      dup2\n      mstore\n      0x20\n      add\n      swap1\n      dup2\n      mstore\n      0x20\n      add\n      0x00\n      keccak256\n        /* \"contracts/ExampleMappingStruct.sol\":1013:1048  balances[msg.sender].numWithdrawals */\n      0x03\n      add\n      sload\n        /* \"contracts/ExampleMappingStruct.sol\":980:1049  balances[msg.sender].withdrawals[balances[msg.sender].numWithdrawals] */\n      dup2\n      mstore\n      0x20\n      add\n      swap1\n      dup2\n      mstore\n      0x20\n      add\n      0x00\n      keccak256\n        /* \"contracts/ExampleMappingStruct.sol\":980:1060  balances[msg.sender].withdrawals[balances[msg.sender].numWithdrawals] = withdral */\n      0x00\n      dup3\n      add\n      mload\n      dup2\n      0x00\n      add\n      sstore\n      0x20\n      dup3\n      add\n      mload\n      dup2\n      0x01\n      add\n      sstore\n      swap1\n      pop\n      pop\n        /* \"contracts/ExampleMappingStruct.sol\":1073:1081  balances */\n      0x00\n        /* \"contracts/ExampleMappingStruct.sol\":1073:1093  balances[msg.sender] */\n      0x00\n        /* \"contracts/ExampleMappingStruct.sol\":1082:1092  msg.sender */\n      caller\n        /* \"contracts/ExampleMappingStruct.sol\":1073:1093  balances[msg.sender] */\n      0xffffffffffffffffffffffffffffffffffffffff\n      and\n      0xffffffffffffffffffffffffffffffffffffffff\n      and\n      dup2\n      mstore\n      0x20\n      add\n      swap1\n      dup2\n      mstore\n      0x20\n      add\n      0x00\n      keccak256\n        /* \"contracts/ExampleMappingStruct.sol\":1073:1108  balances[msg.sender].numWithdrawals */\n      0x03\n      add\n      0x00\n        /* \"contracts/ExampleMappingStruct.sol\":1073:1110  balances[msg.sender].numWithdrawals++ */\n      dup2\n      sload\n      dup1\n      swap3\n      swap2\n      swap1\n      tag_27\n      swap1\n      tag_23\n      jump\t// in\n    tag_27:\n      swap2\n      swap1\n      pop\n      sstore\n      pop\n        /* \"contracts/ExampleMappingStruct.sol\":1131:1134  _to */\n      dup3\n        /* \"contracts/ExampleMappingStruct.sol\":1131:1143  _to.transfer */\n      0xffffffffffffffffffffffffffffffffffffffff\n      and\n        /* \"contracts/ExampleMappingStruct.sol\":1131:1152  _to.transfer(_amount) */\n      0x08fc\n        /* \"contracts/ExampleMappingStruct.sol\":1144:1151  _amount */\n      dup4\n        /* \"contracts/ExampleMappingStruct.sol\":1131:1152  _to.transfer(_amount) */\n      swap1\n      dup2\n      iszero\n      mul\n      swap1\n      mload(0x40)\n      0x00\n      mload(0x40)\n      dup1\n      dup4\n      sub\n      dup2\n      dup6\n      dup9\n      dup9\n      call\n      swap4\n      pop\n      pop\n      pop\n      pop\n      iszero\n      dup1\n      iszero\n      tag_29\n      jumpi\n      returndatacopy(0x00, 0x00, returndatasize)\n      revert(0x00, returndatasize)\n    tag_29:\n      pop\n        /* \"contracts/ExampleMappingStruct.sol\":822:1162  {... */\n      pop\n        /* \"contracts/ExampleMappingStruct.sol\":757:1162  function withdrawMoney(address payable _to, uint _amount) public {... */\n      pop\n      pop\n      jump\t// out\n        /* \"#utility.yul\":88:205   */\n    tag_31:\n        /* \"#utility.yul\":197:198   */\n      0x00\n        /* \"#utility.yul\":194:195   */\n      0x00\n        /* \"#utility.yul\":187:199   */\n      revert\n        /* \"#utility.yul\":334:460   */\n    tag_33:\n        /* \"#utility.yul\":371:378   */\n      0x00\n        /* \"#utility.yul\":411:453   */\n      0xffffffffffffffffffffffffffffffffffffffff\n        /* \"#utility.yul\":404:409   */\n      dup3\n        /* \"#utility.yul\":400:454   */\n      and\n        /* \"#utility.yul\":389:454   */\n      swap1\n      pop\n        /* \"#utility.yul\":334:460   */\n      swap2\n      swap1\n      pop\n      jump\t// out\n        /* \"#utility.yul\":466:562   */\n    tag_34:\n        /* \"#utility.yul\":503:510   */\n      0x00\n        /* \"#utility.yul\":532:556   */\n      tag_51\n        /* \"#utility.yul\":550:555   */\n      dup3\n        /* \"#utility.yul\":532:556   */\n      tag_33\n      jump\t// in\n    tag_51:\n        /* \"#utility.yul\":521:556   */\n      swap1\n      pop\n        /* \"#utility.yul\":466:562   */\n      swap2\n      swap1\n      pop\n      jump\t// out\n        /* \"#utility.yul\":568:690   */\n    tag_35:\n        /* \"#utility.yul\":641:665   */\n      tag_53\n        /* \"#utility.yul\":659:664   */\n      dup2\n        /* \"#utility.yul\":641:665   */\n      tag_34\n      jump\t// in\n    tag_53:\n        /* \"#utility.yul\":634:639   */\n      dup2\n        /* \"#utility.yul\":631:666   */\n      eq\n        /* \"#utility.yul\":621:684   */\n      tag_54\n      jumpi\n        /* \"#utility.yul\":680:681   */\n      0x00\n        /* \"#utility.yul\":677:678   */\n      0x00\n        /* \"#utility.yul\":670:682   */\n      revert\n        /* \"#utility.yul\":621:684   */\n    tag_54:\n        /* \"#utility.yul\":568:690   */\n      pop\n      jump\t// out\n        /* \"#utility.yul\":696:835   */\n    tag_36:\n        /* \"#utility.yul\":742:747   */\n      0x00\n        /* \"#utility.yul\":780:786   */\n      dup2\n        /* \"#utility.yul\":767:787   */\n      calldataload\n        /* \"#utility.yul\":758:787   */\n      swap1\n      pop\n        /* \"#utility.yul\":796:829   */\n      tag_56\n        /* \"#utility.yul\":823:828   */\n      dup2\n        /* \"#utility.yul\":796:829   */\n      tag_35\n      jump\t// in\n    tag_56:\n        /* \"#utility.yul\":696:835   */\n      swap3\n      swap2\n      pop\n      pop\n      jump\t// out\n        /* \"#utility.yul\":841:1170   */\n    tag_10:\n        /* \"#utility.yul\":900:906   */\n      0x00\n        /* \"#utility.yul\":949:951   */\n      0x20\n        /* \"#utility.yul\":937:946   */\n      dup3\n        /* \"#utility.yul\":928:935   */\n      dup5\n        /* \"#utility.yul\":924:947   */\n      sub\n        /* \"#utility.yul\":920:952   */\n      slt\n        /* \"#utility.yul\":917:1036   */\n      iszero\n      tag_58\n      jumpi\n        /* \"#utility.yul\":955:1034   */\n      tag_59\n      tag_31\n      jump\t// in\n    tag_59:\n        /* \"#utility.yul\":917:1036   */\n    tag_58:\n        /* \"#utility.yul\":1075:1076   */\n      0x00\n        /* \"#utility.yul\":1100:1153   */\n      tag_60\n        /* \"#utility.yul\":1145:1152   */\n      dup5\n        /* \"#utility.yul\":1136:1142   */\n      dup3\n        /* \"#utility.yul\":1125:1134   */\n      dup6\n        /* \"#utility.yul\":1121:1143   */\n      add\n        /* \"#utility.yul\":1100:1153   */\n      tag_36\n      jump\t// in\n    tag_60:\n        /* \"#utility.yul\":1090:1153   */\n      swap2\n      pop\n        /* \"#utility.yul\":1046:1163   */\n      pop\n        /* \"#utility.yul\":841:1170   */\n      swap3\n      swap2\n      pop\n      pop\n      jump\t// out\n        /* \"#utility.yul\":1176:1253   */\n    tag_37:\n        /* \"#utility.yul\":1213:1220   */\n      0x00\n        /* \"#utility.yul\":1242:1247   */\n      dup2\n        /* \"#utility.yul\":1231:1247   */\n      swap1\n      pop\n        /* \"#utility.yul\":1176:1253   */\n      swap2\n      swap1\n      pop\n      jump\t// out\n        /* \"#utility.yul\":1259:1377   */\n    tag_38:\n        /* \"#utility.yul\":1346:1370   */\n      tag_63\n        /* \"#utility.yul\":1364:1369   */\n      dup2\n        /* \"#utility.yul\":1346:1370   */\n      tag_37\n      jump\t// in\n    tag_63:\n        /* \"#utility.yul\":1341:1344   */\n      dup3\n        /* \"#utility.yul\":1334:1371   */\n      mstore\n        /* \"#utility.yul\":1259:1377   */\n      pop\n      pop\n      jump\t// out\n        /* \"#utility.yul\":1383:1825   */\n    tag_13:\n        /* \"#utility.yul\":1532:1536   */\n      0x00\n        /* \"#utility.yul\":1570:1572   */\n      0x60\n        /* \"#utility.yul\":1559:1568   */\n      dup3\n        /* \"#utility.yul\":1555:1573   */\n      add\n        /* \"#utility.yul\":1547:1573   */\n      swap1\n      pop\n        /* \"#utility.yul\":1583:1654   */\n      tag_65\n        /* \"#utility.yul\":1651:1652   */\n      0x00\n        /* \"#utility.yul\":1640:1649   */\n      dup4\n        /* \"#utility.yul\":1636:1653   */\n      add\n        /* \"#utility.yul\":1627:1633   */\n      dup7\n        /* \"#utility.yul\":1583:1654   */\n      tag_38\n      jump\t// in\n    tag_65:\n        /* \"#utility.yul\":1664:1736   */\n      tag_66\n        /* \"#utility.yul\":1732:1734   */\n      0x20\n        /* \"#utility.yul\":1721:1730   */\n      dup4\n        /* \"#utility.yul\":1717:1735   */\n      add\n        /* \"#utility.yul\":1708:1714   */\n      dup6\n        /* \"#utility.yul\":1664:1736   */\n      tag_38\n      jump\t// in\n    tag_66:\n        /* \"#utility.yul\":1746:1818   */\n      tag_67\n        /* \"#utility.yul\":1814:1816   */\n      0x40\n        /* \"#utility.yul\":1803:1812   */\n      dup4\n        /* \"#utility.yul\":1799:1817   */\n      add\n        /* \"#utility.yul\":1790:1796   */\n      dup5\n        /* \"#utility.yul\":1746:1818   */\n      tag_38\n      jump\t// in\n    tag_67:\n        /* \"#utility.yul\":1383:1825   */\n      swap5\n      swap4\n      pop\n      pop\n      pop\n      pop\n      jump\t// out\n        /* \"#utility.yul\":1831:1935   */\n    tag_39:\n        /* \"#utility.yul\":1876:1883   */\n      0x00\n        /* \"#utility.yul\":1905:1929   */\n      tag_69\n        /* \"#utility.yul\":1923:1928   */\n      dup3\n        /* \"#utility.yul\":1905:1929   */\n      tag_33\n      jump\t// in\n    tag_69:\n        /* \"#utility.yul\":1894:1929   */\n      swap1\n      pop\n        /* \"#utility.yul\":1831:1935   */\n      swap2\n      swap1\n      pop\n      jump\t// out\n        /* \"#utility.yul\":1941:2079   */\n    tag_40:\n        /* \"#utility.yul\":2022:2054   */\n      tag_71\n        /* \"#utility.yul\":2048:2053   */\n      dup2\n        /* \"#utility.yul\":2022:2054   */\n      tag_39\n      jump\t// in\n    tag_71:\n        /* \"#utility.yul\":2015:2020   */\n      dup2\n        /* \"#utility.yul\":2012:2055   */\n      eq\n        /* \"#utility.yul\":2002:2073   */\n      tag_72\n      jumpi\n        /* \"#utility.yul\":2069:2070   */\n      0x00\n        /* \"#utility.yul\":2066:2067   */\n      0x00\n        /* \"#utility.yul\":2059:2071   */\n      revert\n        /* \"#utility.yul\":2002:2073   */\n    tag_72:\n        /* \"#utility.yul\":1941:2079   */\n      pop\n      jump\t// out\n        /* \"#utility.yul\":2085:2240   */\n    tag_41:\n        /* \"#utility.yul\":2139:2144   */\n      0x00\n        /* \"#utility.yul\":2177:2183   */\n      dup2\n        /* \"#utility.yul\":2164:2184   */\n      calldataload\n        /* \"#utility.yul\":2155:2184   */\n      swap1\n      pop\n        /* \"#utility.yul\":2193:2234   */\n      tag_74\n        /* \"#utility.yul\":2228:2233   */\n      dup2\n        /* \"#utility.yul\":2193:2234   */\n      tag_40\n      jump\t// in\n    tag_74:\n        /* \"#utility.yul\":2085:2240   */\n      swap3\n      swap2\n      pop\n      pop\n      jump\t// out\n        /* \"#utility.yul\":2246:2368   */\n    tag_42:\n        /* \"#utility.yul\":2319:2343   */\n      tag_76\n        /* \"#utility.yul\":2337:2342   */\n      dup2\n        /* \"#utility.yul\":2319:2343   */\n      tag_37\n      jump\t// in\n    tag_76:\n        /* \"#utility.yul\":2312:2317   */\n      dup2\n        /* \"#utility.yul\":2309:2344   */\n      eq\n        /* \"#utility.yul\":2299:2362   */\n      tag_77\n      jumpi\n        /* \"#utility.yul\":2358:2359   */\n      0x00\n        /* \"#utility.yul\":2355:2356   */\n      0x00\n        /* \"#utility.yul\":2348:2360   */\n      revert\n        /* \"#utility.yul\":2299:2362   */\n    tag_77:\n        /* \"#utility.yul\":2246:2368   */\n      pop\n      jump\t// out\n        /* \"#utility.yul\":2374:2513   */\n    tag_43:\n        /* \"#utility.yul\":2420:2425   */\n      0x00\n        /* \"#utility.yul\":2458:2464   */\n      dup2\n        /* \"#utility.yul\":2445:2465   */\n      calldataload\n        /* \"#utility.yul\":2436:2465   */\n      swap1\n      pop\n        /* \"#utility.yul\":2474:2507   */\n      tag_79\n        /* \"#utility.yul\":2501:2506   */\n      dup2\n        /* \"#utility.yul\":2474:2507   */\n      tag_42\n      jump\t// in\n    tag_79:\n        /* \"#utility.yul\":2374:2513   */\n      swap3\n      swap2\n      pop\n      pop\n      jump\t// out\n        /* \"#utility.yul\":2519:3009   */\n    tag_17:\n        /* \"#utility.yul\":2595:2601   */\n      0x00\n        /* \"#utility.yul\":2603:2609   */\n      0x00\n        /* \"#utility.yul\":2652:2654   */\n      0x40\n        /* \"#utility.yul\":2640:2649   */\n      dup4\n        /* \"#utility.yul\":2631:2638   */\n      dup6\n        /* \"#utility.yul\":2627:2650   */\n      sub\n        /* \"#utility.yul\":2623:2655   */\n      slt\n        /* \"#utility.yul\":2620:2739   */\n      iszero\n      tag_81\n      jumpi\n        /* \"#utility.yul\":2658:2737   */\n      tag_82\n      tag_31\n      jump\t// in\n    tag_82:\n        /* \"#utility.yul\":2620:2739   */\n    tag_81:\n        /* \"#utility.yul\":2778:2779   */\n      0x00\n        /* \"#utility.yul\":2803:2864   */\n      tag_83\n        /* \"#utility.yul\":2856:2863   */\n      dup6\n        /* \"#utility.yul\":2847:2853   */\n      dup3\n        /* \"#utility.yul\":2836:2845   */\n      dup7\n        /* \"#utility.yul\":2832:2854   */\n      add\n        /* \"#utility.yul\":2803:2864   */\n      tag_41\n      jump\t// in\n    tag_83:\n        /* \"#utility.yul\":2793:2864   */\n      swap3\n      pop\n        /* \"#utility.yul\":2749:2874   */\n      pop\n        /* \"#utility.yul\":2913:2915   */\n      0x20\n        /* \"#utility.yul\":2939:2992   */\n      tag_84\n        /* \"#utility.yul\":2984:2991   */\n      dup6\n        /* \"#utility.yul\":2975:2981   */\n      dup3\n        /* \"#utility.yul\":2964:2973   */\n      dup7\n        /* \"#utility.yul\":2960:2982   */\n      add\n        /* \"#utility.yul\":2939:2992   */\n      tag_43\n      jump\t// in\n    tag_84:\n        /* \"#utility.yul\":2929:2992   */\n      swap2\n      pop\n        /* \"#utility.yul\":2884:3002   */\n      pop\n        /* \"#utility.yul\":2519:3009   */\n      swap3\n      pop\n      swap3\n      swap1\n      pop\n      jump\t// out\n        /* \"#utility.yul\":3015:3195   */\n    tag_44:\n        /* \"#utility.yul\":3063:3140   */\n      0x4e487b7100000000000000000000000000000000000000000000000000000000\n        /* \"#utility.yul\":3060:3061   */\n      0x00\n        /* \"#utility.yul\":3053:3141   */\n      mstore\n        /* \"#utility.yul\":3160:3164   */\n      0x11\n        /* \"#utility.yul\":3157:3158   */\n      0x04\n        /* \"#utility.yul\":3150:3165   */\n      mstore\n        /* \"#utility.yul\":3184:3188   */\n      0x24\n        /* \"#utility.yul\":3181:3182   */\n      0x00\n        /* \"#utility.yul\":3174:3189   */\n      revert\n        /* \"#utility.yul\":3201:3392   */\n    tag_21:\n        /* \"#utility.yul\":3241:3244   */\n      0x00\n        /* \"#utility.yul\":3260:3280   */\n      tag_87\n        /* \"#utility.yul\":3278:3279   */\n      dup3\n        /* \"#utility.yul\":3260:3280   */\n      tag_37\n      jump\t// in\n    tag_87:\n        /* \"#utility.yul\":3255:3280   */\n      swap2\n      pop\n        /* \"#utility.yul\":3294:3314   */\n      tag_88\n        /* \"#utility.yul\":3312:3313   */\n      dup4\n        /* \"#utility.yul\":3294:3314   */\n      tag_37\n      jump\t// in\n    tag_88:\n        /* \"#utility.yul\":3289:3314   */\n      swap3\n      pop\n        /* \"#utility.yul\":3337:3338   */\n      dup3\n        /* \"#utility.yul\":3334:3335   */\n      dup3\n        /* \"#utility.yul\":3330:3339   */\n      add\n        /* \"#utility.yul\":3323:3339   */\n      swap1\n      pop\n        /* \"#utility.yul\":3358:3361   */\n      dup1\n        /* \"#utility.yul\":3355:3356   */\n      dup3\n        /* \"#utility.yul\":3352:3362   */\n      gt\n        /* \"#utility.yul\":3349:3385   */\n      iszero\n      tag_89\n      jumpi\n        /* \"#utility.yul\":3365:3383   */\n      tag_90\n      tag_44\n      jump\t// in\n    tag_90:\n        /* \"#utility.yul\":3349:3385   */\n    tag_89:\n        /* \"#utility.yul\":3201:3392   */\n      swap3\n      swap2\n      pop\n      pop\n      jump\t// out\n        /* \"#utility.yul\":3398:3631   */\n    tag_23:\n        /* \"#utility.yul\":3437:3440   */\n      0x00\n        /* \"#utility.yul\":3460:3484   */\n      tag_92\n        /* \"#utility.yul\":3478:3483   */\n      dup3\n        /* \"#utility.yul\":3460:3484   */\n      tag_37\n      jump\t// in\n    tag_92:\n        /* \"#utility.yul\":3451:3484   */\n      swap2\n      pop\n        /* \"#utility.yul\":3506:3572   */\n      0xffffffffffffffffffffffffffffffffffffffffffffffffffffffffffffffff\n        /* \"#utility.yul\":3499:3504   */\n      dup3\n        /* \"#utility.yul\":3496:3573   */\n      sub\n        /* \"#utility.yul\":3493:3596   */\n      tag_93\n      jumpi\n        /* \"#utility.yul\":3576:3594   */\n      tag_94\n      tag_44\n      jump\t// in\n    tag_94:\n        /* \"#utility.yul\":3493:3596   */\n    tag_93:\n        /* \"#utility.yul\":3623:3624   */\n      0x01\n        /* \"#utility.yul\":3616:3621   */\n      dup3\n        /* \"#utility.yul\":3612:3625   */\n      add\n        /* \"#utility.yul\":3605:3625   */\n      swap1\n      pop\n        /* \"#utility.yul\":3398:3631   */\n      swap2\n      swap1\n      pop\n      jump\t// out\n        /* \"#utility.yul\":3637:3831   */\n    tag_26:\n        /* \"#utility.yul\":3677:3681   */\n      0x00\n        /* \"#utility.yul\":3697:3717   */\n      tag_96\n        /* \"#utility.yul\":3715:3716   */\n      dup3\n        /* \"#utility.yul\":3697:3717   */\n      tag_37\n      jump\t// in\n    tag_96:\n        /* \"#utility.yul\":3692:3717   */\n      swap2\n      pop\n        /* \"#utility.yul\":3731:3751   */\n      tag_97\n        /* \"#utility.yul\":3749:3750   */\n      dup4\n        /* \"#utility.yul\":3731:3751   */\n      tag_37\n      jump\t// in\n    tag_97:\n        /* \"#utility.yul\":3726:3751   */\n      swap3\n      pop\n        /* \"#utility.yul\":3775:3776   */\n      dup3\n        /* \"#utility.yul\":3772:3773   */\n      dup3\n        /* \"#utility.yul\":3768:3777   */\n      sub\n        /* \"#utility.yul\":3760:3777   */\n      swap1\n      pop\n        /* \"#utility.yul\":3799:3800   */\n      dup2\n        /* \"#utility.yul\":3793:3797   */\n      dup2\n        /* \"#utility.yul\":3790:3801   */\n      gt\n        /* \"#utility.yul\":3787:3824   */\n      iszero\n      tag_98\n      jumpi\n        /* \"#utility.yul\":3804:3822   */\n      tag_99\n      tag_44\n      jump\t// in\n    tag_99:\n        /* \"#utility.yul\":3787:3824   */\n    tag_98:\n        /* \"#utility.yul\":3637:3831   */\n      swap3\n      swap2\n      pop\n      pop\n      jump\t// out\n\n    auxdata: 0xa2646970667358221220f55e30ca012552f3199ff4adca67e1fc68c19d3dbbae8e9b9ad4c331512d34a864736f6c634300081e0033\n}\n",
				"bytecode": {
					"linkReferences": {},
					"object": "6080604052348015600e575f5ffd5b506106678061001c5f395ff3fe608060405260043610610033575f3560e01c806316c05aa21461003757806327e235e314610041578063f274c8971461007f575b5f5ffd5b61003f6100a7565b005b34801561004c575f5ffd5b506100676004803603810190610062919061043c565b61020d565b6040516100769392919061047f565b60405180910390f35b34801561008a575f5ffd5b506100a560048036038101906100a09190610519565b610232565b005b345f5f3373ffffffffffffffffffffffffffffffffffffffff1673ffffffffffffffffffffffffffffffffffffffff1681526020019081526020015f205f015f8282546100f49190610584565b925050819055505f6040518060400160405280348152602001428152509050805f5f3373ffffffffffffffffffffffffffffffffffffffff1673ffffffffffffffffffffffffffffffffffffffff1681526020019081526020015f206002015f5f5f3373ffffffffffffffffffffffffffffffffffffffff1673ffffffffffffffffffffffffffffffffffffffff1681526020019081526020015f206001015481526020019081526020015f205f820151815f0155602082015181600101559050505f5f3373ffffffffffffffffffffffffffffffffffffffff1673ffffffffffffffffffffffffffffffffffffffff1681526020019081526020015f206001015f815480929190610205906105b7565b919050555050565b5f602052805f5260405f205f91509050805f0154908060010154908060030154905083565b805f5f3373ffffffffffffffffffffffffffffffffffffffff1673ffffffffffffffffffffffffffffffffffffffff1681526020019081526020015f205f015f82825461027f91906105fe565b925050819055505f6040518060400160405280838152602001428152509050805f5f3373ffffffffffffffffffffffffffffffffffffffff1673ffffffffffffffffffffffffffffffffffffffff1681526020019081526020015f206004015f5f5f3373ffffffffffffffffffffffffffffffffffffffff1673ffffffffffffffffffffffffffffffffffffffff1681526020019081526020015f206003015481526020019081526020015f205f820151815f0155602082015181600101559050505f5f3373ffffffffffffffffffffffffffffffffffffffff1673ffffffffffffffffffffffffffffffffffffffff1681526020019081526020015f206003015f815480929190610390906105b7565b91905055508273ffffffffffffffffffffffffffffffffffffffff166108fc8390811502906040515f60405180830381858888f193505050501580156103d8573d5f5f3e3d5ffd5b50505050565b5f5ffd5b5f73ffffffffffffffffffffffffffffffffffffffff82169050919050565b5f61040b826103e2565b9050919050565b61041b81610401565b8114610425575f5ffd5b50565b5f8135905061043681610412565b92915050565b5f60208284031215610451576104506103de565b5b5f61045e84828501610428565b91505092915050565b5f819050919050565b61047981610467565b82525050565b5f6060820190506104925f830186610470565b61049f6020830185610470565b6104ac6040830184610470565b949350505050565b5f6104be826103e2565b9050919050565b6104ce816104b4565b81146104d8575f5ffd5b50565b5f813590506104e9816104c5565b92915050565b6104f881610467565b8114610502575f5ffd5b50565b5f81359050610513816104ef565b92915050565b5f5f6040838503121561052f5761052e6103de565b5b5f61053c858286016104db565b925050602061054d85828601610505565b9150509250929050565b7f4e487b71000000000000000000000000000000000000000000000000000000005f52601160045260245ffd5b5f61058e82610467565b915061059983610467565b92508282019050808211156105b1576105b0610557565b5b92915050565b5f6105c182610467565b91507fffffffffffffffffffffffffffffffffffffffffffffffffffffffffffffffff82036105f3576105f2610557565b5b600182019050919050565b5f61060882610467565b915061061383610467565b925082820390508181111561062b5761062a610557565b5b9291505056fea2646970667358221220f55e30ca012552f3199ff4adca67e1fc68c19d3dbbae8e9b9ad4c331512d34a864736f6c634300081e0033",
					"opcodes": "PUSH1 0x80 PUSH1 0x40 MSTORE CALLVALUE DUP1 ISZERO PUSH1 0xE JUMPI PUSH0 PUSH0 REVERT JUMPDEST POP PUSH2 0x667 DUP1 PUSH2 0x1C PUSH0 CODECOPY PUSH0 RETURN INVALID PUSH1 0x80 PUSH1 0x40 MSTORE PUSH1 0x4 CALLDATASIZE LT PUSH2 0x33 JUMPI PUSH0 CALLDATALOAD PUSH1 0xE0 SHR DUP1 PUSH4 0x16C05AA2 EQ PUSH2 0x37 JUMPI DUP1 PUSH4 0x27E235E3 EQ PUSH2 0x41 JUMPI DUP1 PUSH4 0xF274C897 EQ PUSH2 0x7F JUMPI JUMPDEST PUSH0 PUSH0 REVERT JUMPDEST PUSH2 0x3F PUSH2 0xA7 JUMP JUMPDEST STOP JUMPDEST CALLVALUE DUP1 ISZERO PUSH2 0x4C JUMPI PUSH0 PUSH0 REVERT JUMPDEST POP PUSH2 0x67 PUSH1 0x4 DUP1 CALLDATASIZE SUB DUP2 ADD SWAP1 PUSH2 0x62 SWAP2 SWAP1 PUSH2 0x43C JUMP JUMPDEST PUSH2 0x20D JUMP JUMPDEST PUSH1 0x40 MLOAD PUSH2 0x76 SWAP4 SWAP3 SWAP2 SWAP1 PUSH2 0x47F JUMP JUMPDEST PUSH1 0x40 MLOAD DUP1 SWAP2 SUB SWAP1 RETURN JUMPDEST CALLVALUE DUP1 ISZERO PUSH2 0x8A JUMPI PUSH0 PUSH0 REVERT JUMPDEST POP PUSH2 0xA5 PUSH1 0x4 DUP1 CALLDATASIZE SUB DUP2 ADD SWAP1 PUSH2 0xA0 SWAP2 SWAP1 PUSH2 0x519 JUMP JUMPDEST PUSH2 0x232 JUMP JUMPDEST STOP JUMPDEST CALLVALUE PUSH0 PUSH0 CALLER PUSH20 0xFFFFFFFFFFFFFFFFFFFFFFFFFFFFFFFFFFFFFFFF AND PUSH20 0xFFFFFFFFFFFFFFFFFFFFFFFFFFFFFFFFFFFFFFFF AND DUP2 MSTORE PUSH1 0x20 ADD SWAP1 DUP2 MSTORE PUSH1 0x20 ADD PUSH0 KECCAK256 PUSH0 ADD PUSH0 DUP3 DUP3 SLOAD PUSH2 0xF4 SWAP2 SWAP1 PUSH2 0x584 JUMP JUMPDEST SWAP3 POP POP DUP2 SWAP1 SSTORE POP PUSH0 PUSH1 0x40 MLOAD DUP1 PUSH1 0x40 ADD PUSH1 0x40 MSTORE DUP1 CALLVALUE DUP2 MSTORE PUSH1 0x20 ADD TIMESTAMP DUP2 MSTORE POP SWAP1 POP DUP1 PUSH0 PUSH0 CALLER PUSH20 0xFFFFFFFFFFFFFFFFFFFFFFFFFFFFFFFFFFFFFFFF AND PUSH20 0xFFFFFFFFFFFFFFFFFFFFFFFFFFFFFFFFFFFFFFFF AND DUP2 MSTORE PUSH1 0x20 ADD SWAP1 DUP2 MSTORE PUSH1 0x20 ADD PUSH0 KECCAK256 PUSH1 0x2 ADD PUSH0 PUSH0 PUSH0 CALLER PUSH20 0xFFFFFFFFFFFFFFFFFFFFFFFFFFFFFFFFFFFFFFFF AND PUSH20 0xFFFFFFFFFFFFFFFFFFFFFFFFFFFFFFFFFFFFFFFF AND DUP2 MSTORE PUSH1 0x20 ADD SWAP1 DUP2 MSTORE PUSH1 0x20 ADD PUSH0 KECCAK256 PUSH1 0x1 ADD SLOAD DUP2 MSTORE PUSH1 0x20 ADD SWAP1 DUP2 MSTORE PUSH1 0x20 ADD PUSH0 KECCAK256 PUSH0 DUP3 ADD MLOAD DUP2 PUSH0 ADD SSTORE PUSH1 0x20 DUP3 ADD MLOAD DUP2 PUSH1 0x1 ADD SSTORE SWAP1 POP POP PUSH0 PUSH0 CALLER PUSH20 0xFFFFFFFFFFFFFFFFFFFFFFFFFFFFFFFFFFFFFFFF AND PUSH20 0xFFFFFFFFFFFFFFFFFFFFFFFFFFFFFFFFFFFFFFFF AND DUP2 MSTORE PUSH1 0x20 ADD SWAP1 DUP2 MSTORE PUSH1 0x20 ADD PUSH0 KECCAK256 PUSH1 0x1 ADD PUSH0 DUP2 SLOAD DUP1 SWAP3 SWAP2 SWAP1 PUSH2 0x205 SWAP1 PUSH2 0x5B7 JUMP JUMPDEST SWAP2 SWAP1 POP SSTORE POP POP JUMP JUMPDEST PUSH0 PUSH1 0x20 MSTORE DUP1 PUSH0 MSTORE PUSH1 0x40 PUSH0 KECCAK256 PUSH0 SWAP2 POP SWAP1 POP DUP1 PUSH0 ADD SLOAD SWAP1 DUP1 PUSH1 0x1 ADD SLOAD SWAP1 DUP1 PUSH1 0x3 ADD SLOAD SWAP1 POP DUP4 JUMP JUMPDEST DUP1 PUSH0 PUSH0 CALLER PUSH20 0xFFFFFFFFFFFFFFFFFFFFFFFFFFFFFFFFFFFFFFFF AND PUSH20 0xFFFFFFFFFFFFFFFFFFFFFFFFFFFFFFFFFFFFFFFF AND DUP2 MSTORE PUSH1 0x20 ADD SWAP1 DUP2 MSTORE PUSH1 0x20 ADD PUSH0 KECCAK256 PUSH0 ADD PUSH0 DUP3 DUP3 SLOAD PUSH2 0x27F SWAP2 SWAP1 PUSH2 0x5FE JUMP JUMPDEST SWAP3 POP POP DUP2 SWAP1 SSTORE POP PUSH0 PUSH1 0x40 MLOAD DUP1 PUSH1 0x40 ADD PUSH1 0x40 MSTORE DUP1 DUP4 DUP2 MSTORE PUSH1 0x20 ADD TIMESTAMP DUP2 MSTORE POP SWAP1 POP DUP1 PUSH0 PUSH0 CALLER PUSH20 0xFFFFFFFFFFFFFFFFFFFFFFFFFFFFFFFFFFFFFFFF AND PUSH20 0xFFFFFFFFFFFFFFFFFFFFFFFFFFFFFFFFFFFFFFFF AND DUP2 MSTORE PUSH1 0x20 ADD SWAP1 DUP2 MSTORE PUSH1 0x20 ADD PUSH0 KECCAK256 PUSH1 0x4 ADD PUSH0 PUSH0 PUSH0 CALLER PUSH20 0xFFFFFFFFFFFFFFFFFFFFFFFFFFFFFFFFFFFFFFFF AND PUSH20 0xFFFFFFFFFFFFFFFFFFFFFFFFFFFFFFFFFFFFFFFF AND DUP2 MSTORE PUSH1 0x20 ADD SWAP1 DUP2 MSTORE PUSH1 0x20 ADD PUSH0 KECCAK256 PUSH1 0x3 ADD SLOAD DUP2 MSTORE PUSH1 0x20 ADD SWAP1 DUP2 MSTORE PUSH1 0x20 ADD PUSH0 KECCAK256 PUSH0 DUP3 ADD MLOAD DUP2 PUSH0 ADD SSTORE PUSH1 0x20 DUP3 ADD MLOAD DUP2 PUSH1 0x1 ADD SSTORE SWAP1 POP POP PUSH0 PUSH0 CALLER PUSH20 0xFFFFFFFFFFFFFFFFFFFFFFFFFFFFFFFFFFFFFFFF AND PUSH20 0xFFFFFFFFFFFFFFFFFFFFFFFFFFFFFFFFFFFFFFFF AND DUP2 MSTORE PUSH1 0x20 ADD SWAP1 DUP2 MSTORE PUSH1 0x20 ADD PUSH0 KECCAK256 PUSH1 0x3 ADD PUSH0 DUP2 SLOAD DUP1 SWAP3 SWAP2 SWAP1 PUSH2 0x390 SWAP1 PUSH2 0x5B7 JUMP JUMPDEST SWAP2 SWAP1 POP SSTORE POP DUP3 PUSH20 0xFFFFFFFFFFFFFFFFFFFFFFFFFFFFFFFFFFFFFFFF AND PUSH2 0x8FC DUP4 SWAP1 DUP2 ISZERO MUL SWAP1 PUSH1 0x40 MLOAD PUSH0 PUSH1 0x40 MLOAD DUP1 DUP4 SUB DUP2 DUP6 DUP9 DUP9 CALL SWAP4 POP POP POP POP ISZERO DUP1 ISZERO PUSH2 0x3D8 JUMPI RETURNDATASIZE PUSH0 PUSH0 RETURNDATACOPY RETURNDATASIZE PUSH0 REVERT JUMPDEST POP POP POP POP JUMP JUMPDEST PUSH0 PUSH0 REVERT JUMPDEST PUSH0 PUSH20 0xFFFFFFFFFFFFFFFFFFFFFFFFFFFFFFFFFFFFFFFF DUP3 AND SWAP1 POP SWAP2 SWAP1 POP JUMP JUMPDEST PUSH0 PUSH2 0x40B DUP3 PUSH2 0x3E2 JUMP JUMPDEST SWAP1 POP SWAP2 SWAP1 POP JUMP JUMPDEST PUSH2 0x41B DUP2 PUSH2 0x401 JUMP JUMPDEST DUP2 EQ PUSH2 0x425 JUMPI PUSH0 PUSH0 REVERT JUMPDEST POP JUMP JUMPDEST PUSH0 DUP2 CALLDATALOAD SWAP1 POP PUSH2 0x436 DUP2 PUSH2 0x412 JUMP JUMPDEST SWAP3 SWAP2 POP POP JUMP JUMPDEST PUSH0 PUSH1 0x20 DUP3 DUP5 SUB SLT ISZERO PUSH2 0x451 JUMPI PUSH2 0x450 PUSH2 0x3DE JUMP JUMPDEST JUMPDEST PUSH0 PUSH2 0x45E DUP5 DUP3 DUP6 ADD PUSH2 0x428 JUMP JUMPDEST SWAP2 POP POP SWAP3 SWAP2 POP POP JUMP JUMPDEST PUSH0 DUP2 SWAP1 POP SWAP2 SWAP1 POP JUMP JUMPDEST PUSH2 0x479 DUP2 PUSH2 0x467 JUMP JUMPDEST DUP3 MSTORE POP POP JUMP JUMPDEST PUSH0 PUSH1 0x60 DUP3 ADD SWAP1 POP PUSH2 0x492 PUSH0 DUP4 ADD DUP7 PUSH2 0x470 JUMP JUMPDEST PUSH2 0x49F PUSH1 0x20 DUP4 ADD DUP6 PUSH2 0x470 JUMP JUMPDEST PUSH2 0x4AC PUSH1 0x40 DUP4 ADD DUP5 PUSH2 0x470 JUMP JUMPDEST SWAP5 SWAP4 POP POP POP POP JUMP JUMPDEST PUSH0 PUSH2 0x4BE DUP3 PUSH2 0x3E2 JUMP JUMPDEST SWAP1 POP SWAP2 SWAP1 POP JUMP JUMPDEST PUSH2 0x4CE DUP2 PUSH2 0x4B4 JUMP JUMPDEST DUP2 EQ PUSH2 0x4D8 JUMPI PUSH0 PUSH0 REVERT JUMPDEST POP JUMP JUMPDEST PUSH0 DUP2 CALLDATALOAD SWAP1 POP PUSH2 0x4E9 DUP2 PUSH2 0x4C5 JUMP JUMPDEST SWAP3 SWAP2 POP POP JUMP JUMPDEST PUSH2 0x4F8 DUP2 PUSH2 0x467 JUMP JUMPDEST DUP2 EQ PUSH2 0x502 JUMPI PUSH0 PUSH0 REVERT JUMPDEST POP JUMP JUMPDEST PUSH0 DUP2 CALLDATALOAD SWAP1 POP PUSH2 0x513 DUP2 PUSH2 0x4EF JUMP JUMPDEST SWAP3 SWAP2 POP POP JUMP JUMPDEST PUSH0 PUSH0 PUSH1 0x40 DUP4 DUP6 SUB SLT ISZERO PUSH2 0x52F JUMPI PUSH2 0x52E PUSH2 0x3DE JUMP JUMPDEST JUMPDEST PUSH0 PUSH2 0x53C DUP6 DUP3 DUP7 ADD PUSH2 0x4DB JUMP JUMPDEST SWAP3 POP POP PUSH1 0x20 PUSH2 0x54D DUP6 DUP3 DUP7 ADD PUSH2 0x505 JUMP JUMPDEST SWAP2 POP POP SWAP3 POP SWAP3 SWAP1 POP JUMP JUMPDEST PUSH32 0x4E487B7100000000000000000000000000000000000000000000000000000000 PUSH0 MSTORE PUSH1 0x11 PUSH1 0x4 MSTORE PUSH1 0x24 PUSH0 REVERT JUMPDEST PUSH0 PUSH2 0x58E DUP3 PUSH2 0x467 JUMP JUMPDEST SWAP2 POP PUSH2 0x599 DUP4 PUSH2 0x467 JUMP JUMPDEST SWAP3 POP DUP3 DUP3 ADD SWAP1 POP DUP1 DUP3 GT ISZERO PUSH2 0x5B1 JUMPI PUSH2 0x5B0 PUSH2 0x557 JUMP JUMPDEST JUMPDEST SWAP3 SWAP2 POP POP JUMP JUMPDEST PUSH0 PUSH2 0x5C1 DUP3 PUSH2 0x467 JUMP JUMPDEST SWAP2 POP PUSH32 0xFFFFFFFFFFFFFFFFFFFFFFFFFFFFFFFFFFFFFFFFFFFFFFFFFFFFFFFFFFFFFFFF DUP3 SUB PUSH2 0x5F3 JUMPI PUSH2 0x5F2 PUSH2 0x557 JUMP JUMPDEST JUMPDEST PUSH1 0x1 DUP3 ADD SWAP1 POP SWAP2 SWAP1 POP JUMP JUMPDEST PUSH0 PUSH2 0x608 DUP3 PUSH2 0x467 JUMP JUMPDEST SWAP2 POP PUSH2 0x613 DUP4 PUSH2 0x467 JUMP JUMPDEST SWAP3 POP DUP3 DUP3 SUB SWAP1 POP DUP2 DUP2 GT ISZERO PUSH2 0x62B JUMPI PUSH2 0x62A PUSH2 0x557 JUMP JUMPDEST JUMPDEST SWAP3 SWAP2 POP POP JUMP INVALID LOG2 PUSH5 0x6970667358 0x22 SLT KECCAK256 CREATE2 MCOPY ADDRESS 0xCA ADD 0x25 MSTORE RETURN NOT SWAP16 DELEGATECALL 0xAD 0xCA PUSH8 0xE1FC68C19D3DBBAE DUP15 SWAP12 SWAP11 0xD4 0xC3 BALANCE MLOAD 0x2D CALLVALUE 0xA8 PUSH5 0x736F6C6343 STOP ADDMOD 0x1E STOP CALLER "
				},
				"gasEstimates": {
					"creation": {
						"codeDepositCost": "327800",
						"executionCost": "366",
						"totalCost": "328166"
					},
					"external": {
						"balances(address)": "infinite",
						"depositMoney()": "infinite",
						"withdrawMoney(address,uint256)": "infinite"
					}
				},
				"methodIdentifiers": {
					"balances(address)": "27e235e3",
					"depositMoney()": "16c05aa2",
					"withdrawMoney(address,uint256)": "f274c897"
				}
			},
			"storageLayout": {
				"storage": [
					{
						"astId": 28,
						"contract": "contracts/ExampleMappingStruct.sol:MappginStructExample",
						"label": "balances",
						"offset": 0,
						"slot": "0",
						"type": "t_mapping(t_address,t_struct(Balance)23_storage)"
					}
				],
				"types": {
					"t_address": {
						"encoding": "inplace",
						"label": "address",
						"numberOfBytes": "20"
					},
					"t_mapping(t_address,t_struct(Balance)23_storage)": {
						"encoding": "mapping",
						"key": "t_address",
						"label": "mapping(address => struct MappginStructExample.Balance)",
						"numberOfBytes": "32",
						"value": "t_struct(Balance)23_storage"
					},
					"t_mapping(t_uint256,t_struct(Transaction)6_storage)": {
						"encoding": "mapping",
						"key": "t_uint256",
						"label": "mapping(uint256 => struct MappginStructExample.Transaction)",
						"numberOfBytes": "32",
						"value": "t_struct(Transaction)6_storage"
					},
					"t_struct(Balance)23_storage": {
						"encoding": "inplace",
						"label": "struct MappginStructExample.Balance",
						"members": [
							{
								"astId": 8,
								"contract": "contracts/ExampleMappingStruct.sol:MappginStructExample",
								"label": "totalBalance",
								"offset": 0,
								"slot": "0",
								"type": "t_uint256"
							},
							{
								"astId": 10,
								"contract": "contracts/ExampleMappingStruct.sol:MappginStructExample",
								"label": "numberDeposits",
								"offset": 0,
								"slot": "1",
								"type": "t_uint256"
							},
							{
								"astId": 15,
								"contract": "contracts/ExampleMappingStruct.sol:MappginStructExample",
								"label": "deposits",
								"offset": 0,
								"slot": "2",
								"type": "t_mapping(t_uint256,t_struct(Transaction)6_storage)"
							},
							{
								"astId": 17,
								"contract": "contracts/ExampleMappingStruct.sol:MappginStructExample",
								"label": "numWithdrawals",
								"offset": 0,
								"slot": "3",
								"type": "t_uint256"
							},
							{
								"astId": 22,
								"contract": "contracts/ExampleMappingStruct.sol:MappginStructExample",
								"label": "withdrawals",
								"offset": 0,
								"slot": "4",
								"type": "t_mapping(t_uint256,t_struct(Transaction)6_storage)"
							}
						],
						"numberOfBytes": "160"
					},
					"t_struct(Transaction)6_storage": {
						"encoding": "inplace",
						"label": "struct MappginStructExample.Transaction",
						"members": [
							{
								"astId": 3,
								"contract": "contracts/ExampleMappingStruct.sol:MappginStructExample",
								"label": "amount",
								"offset": 0,
								"slot": "0",
								"type": "t_uint256"
							},
							{
								"astId": 5,
								"contract": "contracts/ExampleMappingStruct.sol:MappginStructExample",
								"label": "timestamp",
								"offset": 0,
								"slot": "1",
								"type": "t_uint256"
							}
						],
						"numberOfBytes": "64"
					},
					"t_uint256": {
						"encoding": "inplace",
						"label": "uint256",
						"numberOfBytes": "32"
					}
				}
			},
			"userdoc": {
				"kind": "user",
				"methods": {},
				"version": 1
			}
		}
	}
}