{
	"data": {
		"bytecode": {
			"linkReferences": {},
			"object": "6080604052348015600e575f5ffd5b5060a580601a5f395ff3fe608060405260043610601b575f3560e01c8063ecb0b86214601f575b5f5ffd5b60256027565b005b335f5f6101000a81548173ffffffffffffffffffffffffffffffffffffffff021916908373ffffffffffffffffffffffffffffffffffffffff1602179055503460018190555056fea264697066735822122084d839bc65b72a03b45b055f0afe554b36f18b3384c6fb3c7838b9d471f3ea1f64736f6c634300081e0033",
			"opcodes": "PUSH1 0x80 PUSH1 0x40 MSTORE CALLVALUE DUP1 ISZERO PUSH1 0xE JUMPI PUSH0 PUSH0 REVERT JUMPDEST POP PUSH1 0xA5 DUP1 PUSH1 0x1A PUSH0 CODECOPY PUSH0 RETURN INVALID PUSH1 0x80 PUSH1 0x40 MSTORE PUSH1 0x4 CALLDATASIZE LT PUSH1 0x1B JUMPI PUSH0 CALLDATALOAD PUSH1 0xE0 SHR DUP1 PUSH4 0xECB0B862 EQ PUSH1 0x1F JUMPI JUMPDEST PUSH0 PUSH0 REVERT JUMPDEST PUSH1 0x25 PUSH1 0x27 JUMP JUMPDEST STOP JUMPDEST CALLER PUSH0 PUSH0 PUSH2 0x100 EXP DUP2 SLOAD DUP2 PUSH20 0xFFFFFFFFFFFFFFFFFFFFFFFFFFFFFFFFFFFFFFFF MUL NOT AND SWAP1 DUP4 PUSH20 0xFFFFFFFFFFFFFFFFFFFFFFFFFFFFFFFFFFFFFFFF AND MUL OR SWAP1 SSTORE POP CALLVALUE PUSH1 0x1 DUP2 SWAP1 SSTORE POP JUMP INVALID LOG2 PUSH5 0x6970667358 0x22 SLT KECCAK256 DUP5 0xD8 CODECOPY 0xBC PUSH6 0xB72A03B45B05 PUSH0 EXP INVALID SSTORE 0x4B CALLDATASIZE CALL DUP12 CALLER DUP5 0xC6 EXTSTATICCALL EXTCODECOPY PUSH25 0x38B9D471F3EA1F64736F6C634300081E003300000000000000 "
		},
		"gasEstimates": {
			"creation": {
				"codeDepositCost": "33000",
				"executionCost": "85",
				"totalCost": "33085"
			},
			"external": {
				"payContract()": "46474"
			}
		},
		"methodIdentifiers": {
			"payContract()": "ecb0b862"
		}
	},
	"abi": [
		{
			"inputs": [],
			"name": "payContract",
			"outputs": [],
			"stateMutability": "payable",
			"type": "function"
		}
	]
}